S01C00004C69717569644372797374616C446973706C61792E73726563E8
S113000071C0000086C0000084C0000082C00000EF
S113001080C000007EC000007CC000007AC00000E8
S113002078C0000076C0000074C0000072C00000F8
S113003070C000006EC000006CC000006AC0000008
S113004068C0000066C0000064C0000062C0000018
S113005060C000005EC000005CC000005AC0000028
S113006058C0000056C0000054C0000052C0000038
S113007050C000004EC000004CC000004AC0000048
S113008048C0000046C0000044C0000042C0000058
S113009040C000003EC000003CC000003AC0000068
S11300A038C0000036C0000034C0000032C0000078
S11300B030C000002EC000002CC000002AC0000088
S11300C028C0000026C0000024C0000022C0000098
S11300D020C000001EC000001CC000001AC00000A8
S11300E018C0000011241FBECFEFD1E2DEBFCDBF88
S11300F000E00CBF12E0A0E0B2E0E6EAF2E000E0CB
S11301000BBF02C007900D92AC31B107D9F78AD06A
S1130110C8C076CF81B18F6081B984B1806584B95C
S11301200895CF93C82F82958F7082B92E9A2C9AF6
S113013081E090E09ED02C9881E090E09AD0CF703E
S1130140C2B92E9A2C9A81E090E093D02C988EE23A
S113015090E08FD0CF910895CF93DF93EC01888105
S1130160882329F02196DDDF89918111FCCFDF916D
S1130170CF9108952C9881E090E07BD02C9A81E077
S113018090E077D02C9886E490E073C00895CF93E4
S1130190C82F82958F7082B92E98ECDFCF70C2B9C8
S11301A0E9DFCF9108956F70606820E4829FC001F9
S11301B01124862BECDF85E390E05BC008958FEF7C
S11301C09FEF57D02E982C9812B8D4DF84E991E190
S11301D050D012B8CFDF84E991E14BD012B8CADF16
S11301E086E990E046D012B8C5DF88E2D0DF85E327
S11301F090E03FD088E0CBDF85E390E03AD081E027
S1130200C6DF88EB9BE035D086E0C1DF88EB9BE05E
S113021030D08DE0BCDF85E390E02BC008957ADF19
S1130220CECF0895279A0ED0FADF60E080E0BBDFDE
S113023080E092E091DF60E081E0B5DF8DE092E064
S11302408BDFFFCFE0E8F0E080818E7F80838081C8
S113025082608083E1E8F0E08081877F8083808111
S11302608160808380E190E090938900809388008E
S11302700895B19A109285001092840020E030E035
S113028009C0B19904C028173907D8F308952F5F1E
S11302903F4FB19A8217930719F0B19BF2CFF7CF72
S10902A00895F894FFCF5D
S11302A64D79206E616D652069733A200053686547
S10F02B66E67727569205A68616E6700FB
S9030000FC
