:1000000071C0000086C0000084C0000082C00000F3
:1000100080C000007EC000007CC000007AC00000EC
:1000200078C0000076C0000074C0000072C00000FC
:1000300070C000006EC000006CC000006AC000000C
:1000400068C0000066C0000064C0000062C000001C
:1000500060C000005EC000005CC000005AC000002C
:1000600058C0000056C0000054C0000052C000003C
:1000700050C000004EC000004CC000004AC000004C
:1000800048C0000046C0000044C0000042C000005C
:1000900040C000003EC000003CC000003AC000006C
:1000A00038C0000036C0000034C0000032C000007C
:1000B00030C000002EC000002CC000002AC000008C
:1000C00028C0000026C0000024C0000022C000009C
:1000D00020C000001EC000001CC000001AC00000AC
:1000E00018C0000011241FBECFEFD1E2DEBFCDBF8C
:1000F00000E00CBF12E0A0E0B2E0E2ECF2E000E0D1
:100100000BBF02C007900D92A830B107D9F7BAD043
:10011000D6C076CF81B18F6081B98DB180638DB942
:100120000895982F92959F7092B9759A749A95E058
:100130009A95F1F70000749895E09A95F1F7000010
:100140008F7082B9759A749A85E08A95F1F70000EC
:10015000749895EF9A95F1F700000895CF93DF9387
:10016000EC018881882329F02196DBDF89918111B8
:10017000FCCFDF91CF9108958F7082B97598749AF2
:1001800085E08A95F1F7000074980895982F92956C
:100190009F7092B97598749A95E09A95F1F700005E
:1001A000749895E09A95F1F700008F7082B9749A6F
:1001B00085E08A95F1F70000749808952FEF80E7A5
:1001C00092E0215080409040E1F700C0000083E0C1
:1001D000D3DF8FE090E40197F1F700C0000083E0E7
:1001E000CBDF8FE891E00197F1F700C0000083E0DA
:1001F000C3DF8FE891E00197F1F700C0000082E0D3
:10020000BBDF8FE891E00197F1F700C0000088E2C2
:10021000BDDF83ED90E00197F1F700C0000088E0BA
:10022000B5DF83ED90E00197F1F700C0000081E0B9
:10023000ADDF8FED9EE20197F1F700C0000086E090
:10024000A5DF8FED9EE20197F1F700C000008DE081
:100250009DDF83ED90E00197F1F700C00000089565
:1002600059DFACCF08956F70606820E4829FC001B1
:100270001124862B8BDF83ED90E00197F1F700C00E
:1002800000000895279AECDF64E080E0ECDF80E076
:1002900092E064DF2F9A2FEF89E698E121508040A9
:1002A0009040E1F700C000002F982FEF89E698E119
:1002B000215080409040E1F700C00000EBCFF8945F
:0202C000FFCF6E
:0802C200434F56494431390055
:00000001FF
