:1000000071C0000081C000007FC0000037C1000047
:100010007BC0000079C0000077C0000075C0000000
:1000200073C0000071C000006FC000006DC0000010
:100030006BC0000069C0000067C0000065C0000020
:1000400063C0000061C000005FC000005DC0000030
:100050005BC0000059C0000057C0000055C0000040
:1000600053C0000051C000004FC000004DC0000050
:100070004BC00000CFC0000047C0000045C00000DA
:1000800043C0000041C000003FC000003DC0000070
:100090003BC0000039C0000037C0000035C0000080
:1000A00033C0000031C000002FC000002DC0000090
:1000B0002BC0000029C0000027C0000025C00000A0
:1000C00023C0000021C000001FC000001DC00000B0
:1000D0001BC0000019C0000017C0000015C00000C0
:1000E00013C0000011241FBECFEFD1E2DEBFCDBF91
:1000F00000E00CBF22E0A0E0B2E001C01D92A530FC
:10010000B207E1F741D0BCC27BCFEAE7F0E08081E3
:10011000806480830895ECE7F0E0808180648083D0
:10012000809880818E7F808380818D7F8083808195
:100130008B7F80838081877F808380818F7E808397
:10014000EBE7F0E08081877F8083EAE7F0E0808161
:1001500080688083808188608083808187608083DD
:10016000EEE7F0E0808181608083CFCF0895539ADD
:1001700052985A9AE9E6F0E080818F7D80838081F1
:1001800080618083EA9A0895279A8DB188618DB93C
:100190007894C1DFECDF80E08CD081E09ED083E0FA
:1001A00080930002C2E001E010E080910002813003
:1001B00031F068F1823049F0833049F0F6CF80E5C4
:1001C00090E008D1C0930002F0CF5B9AEECF80E5BB
:1001D00090E000D18091010290910202892B39F4C4
:1001E0001093020200930102C801D2D00DC0809189
:1001F000010290910202019739F4109202021092CA
:10020000010280E090E0C4D010920002CECF2F987F
:100210005B98CBCF1F920F920FB60F9211240BB6A3
:100220000F922F933F934F935F936F937F938F938F
:100230009F93AF93BF93EF93FF938091780090913A
:1002400079009093040280930302809103029091BD
:100250000402E1D05ADFFF91EF91BF91AF919F91DE
:100260008F917F916F915F914F913F912F910F905F
:100270000BBE0F900FBE0F901F9018951F920F92FC
:100280000FB60F9211248F9380910002811104C048
:1002900081E08093000207C080910002823019F44F
:1002A00083E0809300028F910F900FBE0F901F90FC
:1002B0001895811111C084B58F7B84BD84B58F776B
:1002C00084BD84B58E7F84BD84B5826084BD85B5D0
:1002D000877F85BD8AEF87BD0895882319F0813017
:1002E00011F10895E0E9F0E080E5808380818E7F60
:1002F000808380818D7F8083E1E9F0E088E08083E6
:1003000080818F7E808380818160808380818D7FEA
:10031000808380818460808385EA9CE39093990048
:10032000809398000895A0E9B0E01C92E1E9F0E024
:1003300010828C918E7F8C938C9182608C938081C3
:10034000886080838081806180838C918F7B8C9397
:100350008C9180688C938C9180628C938FEF9FE15D
:1003600090939700809396008DE790E0909399008A
:100370008093980090939B0080939A008081816085
:10038000808380818D7F808380818B7F80830895AF
:10039000009791F4EAE7F0E080818F778083E0E9CD
:1003A000F0E080818F77808380818F7B80831092C3
:1003B0009900109298000895019759F4E0E9F0E04F
:1003C000808180688083EAE7F0E0808180688083B4
:1003D0009CCE0895A99A16BC25B52B7F25BD25B5C1
:1003E000226025BD25B5216025BD009751F021E093
:1003F00030E0A99BFECFA99A2F5F3F4F821793074A
:10040000C0F785B58B7F85BD85B58D7F85BD85B5ED
:100410008E7F85BD0895BC0180E090E040D020E053
:1004200030E040E85AE3A1D020E038EF4FEF55E448
:100430009CD009D0709399006093980070939B00B2
:1004400060939A00089570D088F09F5790F0B92F6C
:100450009927B751A0F0D1F0660F771F881F991F19
:100460001AF0BA95C9F712C0B13081F077D0B1E077
:10047000089574C0672F782F8827B85F39F0B93F87
:10048000CCF3869577956795B395D9F73EF490951B
:100490008095709561957F4F8F4F9F4F0895E89499
:1004A00009C097FB3EF490958095709561957F4FBC
:1004B0008F4F9F4F9923A9F0F92F96E9BB2793956A
:1004C000F695879577956795B795F111F8CFFAF47A
:1004D000BB0F11F460FF1BC06F5F7F4F8F4F9F4FAB
:1004E00016C0882311F096E911C0772321F09EE809
:1004F000872F762F05C0662371F096E8862F70E06F
:1005000060E02AF09A95660F771F881FDAF7880F48
:100510009695879597F9089557FD9058440F551F64
:1005200059F05F3F71F04795880F97FB991F61F075
:100530009F3F79F087950895121613061406551FEC
:10054000F2CF4695F1DF08C0161617061806991F58
:10055000F1CF86957105610508940895E894BB274D
:1005600066277727CB0197F908950BD078C069D01B
:1005700028F06ED018F0952309F05AC05FC01124FE
:10058000EECFCADFA0F3959FD1F3950F50E0551F32
:10059000629FF001729FBB27F00DB11D639FAA27D8
:1005A000F00DB11DAA1F649F6627B00DA11D661F27
:1005B000829F2227B00DA11D621F739FB00DA11D48
:1005C000621F839FA00D611D221F749F3327A00D02
:1005D000611D231F849F600D211D822F762F6A2F9E
:1005E00011249F5750408AF0E1F088234AF0EE0F23
:1005F000FF1FBB1F661F771F881F91505040A9F730
:100600009E3F510570F014C0AACF5F3FECF3983EB7
:10061000DCF3869577956795B795F795E7959F5F96
:10062000C1F7FE2B880F911D9695879597F9089530
:1006300097F99F6780E870E060E008959FEF80EC95
:10064000089500240A941616170618060906089538
:1006500000240A9412161306140605060895092E9E
:100660000394000C11F4882352F0BB0F40F4BF2B0D
:1006700011F460FF04C06F5F7F4F8F4F9F4F08954D
:04068000F894FFCF1C
:00000001FF
