S00D00004C61625F322E7372656377
S113000071C000008EC000008CC000008AC00000D7
S113001088C0000086C0000084C0000082C00000C8
S113002080C0000042C100007CC000007AC0000013
S113003078C0000076C0000074C0000072C00000E8
S113004070C000006EC000006CC000006AC00000F8
S113005068C00000C8C0000064C0000062C00000A6
S113006060C000005EC000005CC000005AC0000018
S113007058C0000056C0000054C0000052C0000028
S113008050C000004EC000004CC000004AC0000038
S113009048C0000046C0000044C0000042C0000048
S11300A040C000003EC000003CC000003AC0000058
S11300B038C0000036C0000034C0000032C0000068
S11300C030C000002EC000002CC000002AC0000078
S11300D028C0000026C0000024C0000022C0000088
S11300E020C0000011241FBECFEFD1E2DEBFCDBF80
S11300F000E00CBF12E0A0E0B2E0E0E0F3E000E0DA
S11301000BBF02C007900D92A230B107D9F722E0CD
S1130110A2E0B2E001C01D92A830B207E1F71AD004
S1130120EDC06ECF14B8279A2B9AE8E6F0E08081F0
S113013081608083EBE6F0E08081886080830895AD
S113014081B18F6081B9089592B1907F8F70892BAE
S113015082B908957894F4DFE5DFC2D092E061E0DB
S11301604CEB52E02AEF30E080910202813031F012
S113017040F1823079F0833079F024C07FEF86E754
S1130180E1E071508040E040E1F700C0000090934E
S1130190020218C02F9A16C07FEF86E7E1E0715083
S11301A08040E040E1F700C000008091030281112B
S11301B003C06093030202C0109203021092020271
S11301C001C02F9880910302882319F0813031F007
S11301D0CBCF5093010240930002C6CF309301026B
S11301E020930002C1CF1F920F920FB60F921124D9
S11301F00BB60F922F933F934F935F936F937F931D
S11302008F939F93AF93BF93EF93FF9380910602D5
S11302109091070201969093070280930602209121
S11302200602309107028091000290910102281782
S11302303907C9F4809104029091050201969093C4
S11302400502809304028091040290910502409774
S113025020F0109205021092040280910402909101
S1130260050272DF0FC020910602309107028091CF
S11302700002909101028217930720F41092070262
S113028010920602FF91EF91BF91AF919F918F91D0
S11302907F916F915F914F913F912F910F900BBE82
S11302A00F900FBE0F901F9018951F920F920FB6CC
S11302B00F9211248F9380910202811104C081E076
S11302C08093020207C080910202823019F483E015
S11302D0809302028F910F900FBE0F901F9018957C
S11302E084B5826084BD8FE087BDEEE6F0E0808156
S11302F08260808385B5856085BD0895F894FFCFBD
S10503002C01CA
S9030000FC
