S00C0000546573742E7372656378
S113000071C0000086C0000084C0000082C00000EF
S113001080C000007EC000007CC000007AC00000E8
S113002078C0000076C0000074C0000072C00000F8
S113003070C000006EC000006CC000006AC0000008
S113004068C0000066C0000064C0000062C0000018
S113005060C000005EC000005CC000005AC0000028
S113006058C0000056C0000054C0000052C0000038
S113007050C000004EC000004CC000004AC0000048
S113008048C0000046C0000044C0000042C0000058
S113009040C000003EC000003CC000003AC0000068
S11300A038C0000036C0000034C0000032C0000078
S11300B030C000002EC000002CC000002AC0000088
S11300C028C0000026C0000024C0000022C0000098
S11300D020C000001EC000001CC000001AC00000A8
S11300E018C0000011241FBECFEFD1E2DEBFCDBF88
S11300F000E00CBF12E0A0E0B2E0E4EBF2E000E0CC
S11301000BBF02C007900D92A830B107D9F798D061
S1130110CFC076CF81B18F6081B98DB180638DB945
S11301200895CF93DF93EB018F7082B97598749A19
S113013081E090E0A5D07498CE01A2D0DF91CF9158
S113014008950F931F93CF93C82F8B0182958F70BF
S113015082B97598749A81E090E092D0749881E0A5
S113016090E08ED0CF70C2B9749A81E090E088D0CC
S11301707498C80185D0CF911F910F910895CF93A2
S1130180C82F82958F7082B9759A749A81E090E035
S113019077D0749881E090E073D0CF70C2B9759A2B
S11301A0749A81E090E06CD074988EE290E068D00C
S11301B0CF910895CF93DF93EC018881882329F0B0
S11301C02196DDDF89918111FCCFDF91CF910895D4
S11301D0962F9F70906840E4849F9001112465E3FA
S11301E070E0892F822BADCF089588E99AE348D037
S11301F064E070E183E095DF64E670E083E091DF22
S113020064E670E083E08DDF64E670E082E089DF1D
S113021065E370E088E295DF65E370E088E091DFF4
S113022068EB7BE081E08DDF65E370E086E089DFE9
S113023065E370E08DE085CF08956CDFD6CF089537
S113024008D0FBDF64E080E0C3DF80E092E0B2DF4F
S1130250FFCFE0E8F0E080818E7F80838081826040
S11302608083E1E8F0E08081877F80838081816002
S1130270808380E190E090938900809388000895C2
S1130280B19A109285001092840020E030E009C0F9
S1130290B19904C028173907D8F308952F5F3F4F49
S11302A0B19A8217930719F0B19BF2CFF7CF089553
S10702B0F894FFCFEC
S10B02B44675636B65640000EC
S9030000FC
