:100000000C9483000C94B4000C94B4000C94B400D1
:100010000C94B4000C94B4000C94B4000C94B40090
:100020000C94B4000C94B4000C94B4000C94B40080
:100030000C94B4000C94B4000C94B4000C94B40070
:100040000C94B4000C94B4000C94B4000C94B40060
:100050000C94B4000C94B4000C94B4000C94B40050
:100060000C94B4000C94E9010C94BF010C94B400FE
:100070000C94B4000C94B4000C94B4000C94B40030
:100080000C94B4000C94B4000C94B4000C94B40020
:100090000C94B4000C94B4000C94B4000C94B40010
:1000A0000C94B4000C94B4000C94B4000C94B40000
:1000B0000C94B4000C94B4000C94B4000C94B400F0
:1000C0000C94B4000C94B4000C94B4000C94B400E0
:1000D0000C94B4000C94B4000C94B4000C94B400D0
:1000E0000C94B4000C9407010C9443010C941F026F
:1000F0000C9415010C94B6000C9490010C94E4003F
:100100000C94F3001F0211241FBECFEFD1E2DEBF1B
:10011000CDBF00E00CBF12E0A0E0B2E0E4EFF5E0FC
:1001200000E00BBF02C007900D92A231B107D9F7D2
:1001300022E0A2E1B2E001C01D92AF3AB207E1F7BE
:1001400010E0C3E8D0E000E006C021970109802F4D
:10015000FE010E94EB02C238D10780E00807A9F730
:100160000E944C020C94F8020C940000CF92DF9293
:10017000EF92FF920F931F93CF93DF936C017A015D
:100180008B01C0E0D0E0CE15DF0581F0D8016D9184
:100190008D01D601ED91FC910190F081E02DC60119
:1001A0001995892B11F02196EECF7E01C701DF91C1
:1001B000CF911F910F91FF90EF90DF90CF90089516
:1001C000089580E090E00895FC01538D448D252F23
:1001D00030E0842F90E0821B930B541710F0CF96E1
:1001E000089501970895FC01918D828D981761F013
:1001F000828DDF01A80FB11D5D968C91928D9F5F5E
:100200009F73928F90E008958FEF9FEF0895FC0108
:10021000918D828D981731F0828DE80FF11D858DBB
:1002200090E008958FEF9FEF0895FC01918D228D4E
:10023000892F90E0805C9F4F821B91098F739927D3
:100240000895FC01848DDF01A80FB11DA35ABF4F93
:100250002C91848D90E001968F739927848FA689C5
:10026000B7892C93A089B1898C91837080648C9319
:10027000938D848D981306C00288F389E02D8081C8
:100280008F7D80830895EF92FF920F931F93CF93FA
:10029000DF93EC0181E0888F9B8D8C8D981305C0D6
:1002A000E889F989808185FD26C0F62E0B8D10E046
:1002B0000F5F1F4F0F731127E02E8C8DE8120CC0BB
:1002C0000FB607FCFACFE889F989808185FFF5CF61
:1002D000CE010E942101F1CF8B8DFE01E80FF11DAF
:1002E000E35AFF4FF0829FB7F8940B8FEA89FB899E
:1002F000808180620AC09FB7F894EE89FF8960838D
:10030000E889F98980818370806480839FBF81E060
:1003100090E0DF91CF911F910F91FF90EF900895A2
:10032000CF93DF93EC01888D8823C9F0EA89FB899C
:10033000808185FD05C0A889B9898C9186FD0FC093
:100340000FB607FCF5CF808185FFF2CFA889B98968
:100350008C9185FFEDCFCE010E942101E7CFDF9187
:10036000CF91089528988EBD0DB407FEFDCF6EBDC8
:100370000DB407FEFDCF289A08950E94F3021F9244
:100380000F920FB60F9211240BB60F922F933F933B
:100390004F935F936F937F938F939F93AF93BF938D
:1003A000EF93FF9382E192E00E942101FF91EF9190
:1003B000BF91AF919F918F917F916F915F914F917D
:1003C0003F912F910F900BBE0F900FBE0F901F907B
:1003D00018951F920F920FB60F9211240BB60F9221
:1003E0002F938F939F93EF93FF93E0912202F091CD
:1003F00023028081E0912802F091290282FD12C03F
:10040000908180912B028F5F8F7320912C02821735
:1004100051F0E0912B02F0E0EE5EFD4F958F80935E
:100420002B0201C08081FF91EF919F918F912F91BD
:100430000F900BBE0F900FBE0F901F901895E2E12A
:10044000F2E01382128288EE93E0A0E0B0E08483B1
:100450009583A683B78384E092E09183808385ECC3
:1004600090E09587848784EC90E09787868780EC7E
:1004700090E0918B808B81EC90E0938B828B82EC6F
:1004800090E0958B848B86EC90E0978B868B118E19
:10049000128E138E148E0895E0912202F0912302A1
:1004A00082E08083E0911E02F0911F021082E091B1
:1004B0002002F09121028FEC808310922A02E091B9
:1004C0002602F091270286E08083E0912402F091D9
:1004D0002502808180618083E0912402F0912502D1
:1004E000808188608083E0912402F09125028081E0
:1004F00080688083E0912402F091250280818F7DC5
:100500008083789487E084B9289A8CB58F658CBDF8
:1005100068E08AE00E94B20167E08BE00E94B201CD
:1005200061E08CE00E94B20160E08FE00E94B201C5
:1005300060E081E00E94B20167E982E00E94B201BE
:1005400062E983E00E94B20162EF84E00E94B2019E
:1005500062E985E00E94B20167E986E00E94B2018B
:1005600060E087E00E94B20160E088E00E94B20192
:100570002FEF83ED90E3215080409040E1F700C0E1
:10058000000060E081E00E94B2016AEE82E00E9419
:10059000B2016AEA83E00E94B2016AEE84E00E943E
:1005A000B2016AEA85E00E94B2016FEA86E00E9429
:1005B000B20160E087E00E94B20160E088E00E9442
:1005C000B2012FEF87EA91E6215080409040E1F799
:1005D00000C00000ADCFEE0FFF1F881F8BBF07903C
:1005E000F691E02D199481E090E0F8940C94F802D3
:0405F000F894FFCFAD
:1005F400000000004301B600E40090011501F3007F
:020604000701EC
:00000001FF
