S01900004C61625F355F73616D706C655F636F64652E737265638D
S113000071C000008EC000008CC000008AC00000D7
S113001088C0000086C0000084C0000082C00000C8
S113002080C000007EC000007CC000007AC00000D8
S113003078C0000076C0000074C0000072C00000E8
S113004070C000006EC000006CC000006AC00000F8
S113005068C0000066C0000064C0000062C0000008
S113006060C000005EC000005CC000005AC0000018
S113007058C0000056C0000054C0000052C0000028
S113008050C000004EC000004CC000004AC0000038
S113009048C0000046C0000044C0000042C0000048
S11300A040C000003EC000003CC000003AC0000058
S11300B038C0000036C0000034C0000032C0000068
S11300C030C000002EC000002CC000002AC0000078
S11300D028C0000026C0000024C0000022C0000088
S11300E020C0000011241FBECFEFD1E2DEBFCDBF80
S11300F000E00CBF12E0A0E0B2E0E8ECF3E000E0C6
S11301000BBF02C007900D92A031B107D9F722E0CE
S1130110A0E1B2E001C01D92AD31B207E1F762D0B7
S113012051C16ECFE9EBF0E08081816080838081F2
S11301308D7F808386EC8093B800ECEBF0E08081C7
S113014084688083089594EA9093BC00ECEBF0E01B
S113015090819923ECF7880F8093BB0084E8809307
S1130160BC00ECEBF0E080818823ECF7089584E98F
S11301708093BC0008958093BB0084E88093BC0006
S1130180ECEBF0E080818823ECF70895CF93DF93C4
S1130190C82FD62FD8DF8D2FEEDF84EA8093BC00E2
S11301A0ECEBF0E080818823ECF7CC0FC160C093C6
S11301B0BB0084EC8093BC00ECEBF0E080818823EE
S11301C0ECF784E88093BC00ECEBF0E080818823BA
S11301D0ECF784E98093BC00DF91CF91089580917E
S11301E0BB0008957BD09EDF83E5ADDF8DE2C3DFE6
S11301F088E0C1DFBCDFC2E1D2E02FEF83ED90E302
S1130200215080409040E1F700C0000062E383E5A4
S1130210BDDFE5DF8093110263E383E5B7DFDFDF52
S11302208093100290E0982F882720911102822B4E
S11302309983888364E383E5A9DFD1DF8093110286
S113024065E383E5A3DFCBDF8093100290E0982F72
S1130250882720911102822B9B838A8366E383E59E
S113026095DFBDDF8093110267E383E58FDFB7DF9E
S11302708093100290E0982F882720911102822BFE
S11302809D838C8380E092E050D04AE068E172E084
S11302908881998164D088E192E047D08AE03DD09A
S11302A084E092E042D04AE068E172E08A819B8176
S11302B056D088E192E039D08AE02FD088E092E0ED
S11302C034D04AE068E172E08C819D8148D088E1B5
S11302D092E02BD08CE092E028D08FCF1092C50012
S11302E087E68093C400E1ECF0E080818864808339
S11302F0E2ECF0E080818F77808380818F7B808344
S113030080818F7D808380818F7E80838081877FC1
S113031080838081866080830895E0ECF0E09081A2
S113032095FFFDCF8093C6000895CF93DF93EC0132
S11303302881222389F030E0E0ECF0E046EC50E044
S1130340908195FFFDCFDA012C933F5FDE01A30F6F
S1130350B11D2C912111F4CFDF91CF910895BB27CA
S11303604A3031F4992322F4BDE2909581959F4F50
S113037001C0BB27FB015527AA27880F991FAA1F75
S1130380A41710F0A41B83955051B9F7A05DAA33AC
S113039008F0A95DA193009779F7B111B193119277
S11303A0CB0100C0DC01FC01672F71917723E1F7D9
S11303B0329704C07C916D9370836291AE17BF072E
S10B03C0C8F30895F894FFCF7F
S11303C8583A2000593A20005A3A20000A0A0A00EA
S9030000FC
