S00D00004C61625F362E7372656373
S113000071C0000010C100008CC000008AC0000054
S113001088C0000086C0000084C0000082C00000C8
S113002080C000007EC000007CC000007AC00000D8
S113003078C0000076C0000074C0000072C00000E8
S113004070C000006EC000006CC000006AC00000F8
S113005068C0000066C0000064C0000062C0000008
S113006060C000005EC000005CC000005AC0000018
S113007058C0000056C0000054C0000052C0000028
S113008050C000004EC000004CC000004AC0000038
S113009048C0000046C0000044C0000042C0000048
S11300A040C000003EC000003CC000003AC0000058
S11300B038C0000036C0000034C0000032C0000068
S11300C030C000002EC000002CC000002AC0000078
S11300D028C0000026C0000024C0000022C0000088
S11300E020C0000011241FBECFEFD1E2DEBFCDBF80
S11300F000E00CBF12E0A0E0B2E0E2E8F7E000E0CC
S11301000BBF02C007900D92A831B107D9F722E0C6
S1130110A8E1B2E001C01D92A232B207E1F702D019
S11301202EC36ECF80E058D181E0A7D04DD1CCD181
S11301300FD1789461E081E33ED168E08DE23BD158
S113014060E070E0CB01F5D0C6E0D2E040E052E0E0
S113015066E070E082E310D1E0E0F2E0818190E0BB
S1130160982F88272081822B99838883838190E02C
S1130170982F88272281822B9B838A83858190E014
S1130180982F88272481822B9D838C838CE092E096
S1130190C5D14AE068E172E088819981BDD288E1E5
S11301A092E0D6D180E192E0B9D14AE068E172E010
S11301B08A819B81B1D288E192E0CAD184E192E044
S11301C0ADD14AE068E172E08C819D81A5D288E1DD
S11301D092E0BED18AE09AD18881998199231CF456
S11301E091958195910986399105A4F48A819B8121
S11301F099231CF49195819591098639910554F4BC
S11302008C819D8199231CF4919581959109883C59
S113021091052CF06DEC7CEC8CEC9DE38AD088EE9F
S113022093E024D193CF1F920F920FB60F92112413
S11302300BB60F922F933F934F935F936F937F93DC
S11302408F939F93AF93BF93EF93FF9360E070E01E
S1130250CB016FD0FF91EF91BF91AF919F918F919F
S11302607F916F915F914F913F912F910F900BBEB2
S11302700F900FBE0F901F9018956B9A882319F05A
S1130280813011F10895E0E9F0E080E58083808118
S11302908E7F808380818D7F8083E1E9F0E088E038
S11302A0808380818F7E8083808181608083808150
S11302B08D7F808380818460808385EA9CE3909332
S11302C09900809398000895A0E9B0E01C92E1E9B8
S11302D0F0E010828C918E7F8C938C9182608C9351
S11302E08081886080838081806180838C918F7B12
S11302F08C938C9180688C938C9180628C938FEF1B
S11303009FE190939700809396008DE790E09093FF
S113031099008093980090939B0080939A00808129
S11303208160808380818D7F808380818B7F8083C7
S1130330089520E038EF4FEF55E463D10DD1709369
S113034099006093980070939B0060939A000895BD
S1130350E4E6F0E080818B7F8083209A289A219ABA
S1130360229A8FE58CBD8DB58EB508958EBD0DB4E2
S113037007FEFDCF8EB50895EF92FF920F931F9362
S1130380CF93DF938B017A012898806CEFDF0115FE
S1130390110549F0E7010E0D1F1D80E0E7DF899389
S11303A0C017D107D1F7289ADF91CF911F910F91F0
S11303B0FF90EF900895CF93C62F2898D7DF8C2F06
S11303C0D5DF289ACF910895279A509A589A109277
S11303D06900E89AE09A0895882319F08130D1F0F1
S11303E00895E0E8F0E080818F77808380818E7FBC
S11303F0808380818D7F8083E1E8F0E088E08083E2
S113040080818F7E808380E89EE39093890080932F
S113041088000895E0E8F0E01082A1E8B0E01C92C2
S113042080818E7F80838081826080838C918860CC
S11304308C938C9180618C9380818F7B808380816D
S1130440806880838081806280838FEF9FE19093B6
S11304508700809386008DE790E0909389008093D5
S1130460880090938B0080938A000895B19A20E8C5
S11304703EE3309389002093880010928500109207
S11304808400E1E8F0E020812B7F208320812D7F10
S11304902083208121602083009751F021E030E007
S11304A0B19BFECFB19A2F5F3F4F82179307C0F7DE
S11304B0E1E8F0E080818B7F808380818D7F808381
S11304C080818E7F808308951092C50087E6809393
S11304D0C400E1ECF0E080818860808380818F7BC0
S11304E08083E2ECF0E080818F77808380818F7B52
S11304F0808380818F7D808380818F7E80838081D3
S1130500877F80838081866080830895E0ECF0E0BB
S1130510908195FFFDCF8093C6000895CF93DF931C
S1130520EC012881222389F030E0E0ECF0E046EC95
S113053050E0908195FFFDCFDA012C933F5FDE01FF
S1130540A30FB11D2C912111F4CFDF91CF91089508
S1130550E5DF8AE0DBCF089533D088F09F5790F031
S1130560B92F9927B751A0F0D1F0660F771F881FD4
S1130570991F1AF0BA95C9F712C0B13081F03AD078
S1130580B1E0089537C0672F782F8827B85F39F016
S1130590B93FCCF3869577956795B395D9F73EF433
S11305A090958095709561957F4F8F4F9F4F0895DB
S11305B057FD9058440F551F59F05F3F71F0479510
S11305C0880F97FB991F61F09F3F79F087950895F5
S11305D0121613061406551FF2CF4695F1DF08C014
S11305E0161617061806991FF1CF86957105610531
S11305F008940895E894BB2766277727CB0197F9D9
S113060008950BD078C069D028F06ED018F09523E7
S113061009F05AC05FC01124EECFCADFA0F3959F42
S1130620D1F3950F50E0551F629FF001729FBB27D5
S1130630F00DB11D639FAA27F00DB11DAA1F649F81
S11306406627B00DA11D661F829F2227B00DA11D34
S1130650621F739FB00DA11D621F839FA00D611DBA
S1130660221F749F3327A00D611D231F849F600DDB
S1130670211D822F762F6A2F11249F5750408AF014
S1130680E1F088234AF0EE0FFF1FBB1F661F771FA0
S1130690881F91505040A9F79E3F510570F014C037
S11306A0AACF5F3FECF3983EDCF386957795679588
S11306B0B795F795E7959F5FC1F7FE2B880F911DBE
S11306C09695879597F9089597F99F6780E870E064
S11306D060E008959FEF80EC089500240A941616B4
S11306E0170618060906089500240A94121613061C
S11306F0140605060895092E0394000C11F48823AA
S113070052F0BB0F40F4BF2B11F460FF04C06F5FC5
S11307107F4F8F4F9F4F0895BB274A3031F4992361
S113072022F4BDE2909581959F4F01C0BB27FB0148
S11307305527AA27880F991FAA1FA41710F0A41BD6
S113074083955051B9F7A05DAA3308F0A95DA19330
S1130750009779F7B111B1931192CB0100C0DC017C
S1130760FC01672F71917723E1F7329704C07C91E4
S11307706D9370836291AE17BF07C8F30895F89420
S1050780FFCFA5
S1130782FF0000000000FFFF00000000583A2000B4
S10B0792593A20005A3A2000F4
S9030000FC
